:020000040000FA
:0600000002011A022BDFD1
:03002B0002330D90
:03005300022C522A
:03006B000232DB83
:10008300022A93E5C754F84401F5C7790122000019
:100093000080FB120086B90003020104E479217891
:1000A30008B800028004F709D8FCE479297802B87B
:1000B30000028004F709D8FCE4900281782D7910BE
:1000C3008002F0A3D8FCD9FA781A90014A7A01BACF
:1000D30000028007E493A3F608DAF97AAD7B119066
:1000E300014B78BE79048015E493A3AD82AE838A75
:1000F300828B83F0A3AA82AB838D828E83D8E9D9C6
:10010300E77582B87583E5740412012C75829175C5
:100113008300740012012C75D00075813F7518811E
:10012300751902759F00020096C09FF59FE473D076
:100133009F22D083D082C09FE493C0E0740193C018
:10014300E0740293F59F220182069406BE06880698
:10015300FF0000B4000028002800283075A000A08C
:1001630000A000A00000080008E001F0001000104B
:10017300001000100010001000500050005000103C
:10018300001000D0070000000000000F0001000570
:1001930000307507001000010081FF0000FF020816
:1001A30020080808FF02020208025000A000000015
:1001B300E803029587010000C585026787010000F7
:1001C3000A12025587010000B70202678701000087
:1001D3000B12025787010000CD020267870100005E
:1001E3000C12025B87010000CF0202678701000047
:1001F3000D12025D87080000D0020267870100002C
:100203000E120265870100000F12FFFF0100FF209D
:100213000295870100004D87026787010000741271
:100223000269870000000000029787030000B10302
:10023300520F520F520F520F520F520F520F520FB3
:10024300520F520F520F520F520F621180115C1155
:10025300A012B8129A120202020202020202020160
:100263000D0000001001029587010000508702670E
:1002730087010000BB12027B870100003B0E02676F
:1002830087010000BC1202758701000062840267C7
:1002930087010000BD120273870100001284026708
:1002A30087010000BE120271870100002E830267DE
:1002B30087010000BF12026F8701000040830267BD
:1002C30087010000C012026B87010000528302679E
:1002D30087010000C1120261870100001C830267CD
:1002E30087010000C212025F87010000F6830267E4
:1002F30087010000C312025987010000C41201E8FC
:1003030003053F1002FFFFFF0001307503020106E2
:1003130000000000000000000000000000000000DA
:10032300000000000000000000000000FFFF0600C6
:10033300800CE803FEFF01010201050302F0FF0246
:1003430001051AFF4C000215E2C56DB5DFFB48D26B
:10035300B060D0F5A71096E000010002CD3A184036
:10036300184C18521846180A436861726163746521
:100373007269737469632031000243686172616357
:10038300746572697374696320320008436861722B
:100393006163746572697374696320330010436821
:1003A30061726163746572697374696320340002F6
:1003B300436861726163746572697374696320353C
:1003C300001643686172616374657269737469636B
:1003D30020360002958701000041870267870100EC
:1003E30000CC130281870300004B110253870100E5
:1003F30000CD13026787010000DE1302838701002B
:10040300004C11025387010000DF130267870100CC
:1004130000F0130285870200004D1102538701008B
:1004230000F11302678701000002140287870000AE
:10043300004E110297870300004F110253870100FA
:100443000003140267870100001414028987040063
:10045300005B110253870100001514026787010036
:10046300002614028B8703000060110297870300A4
:100473000074110253870100002714104B65792083
:10048300507265737320537461746500029587011C
:1004930000004A87026787010000E0140293870087
:1004A3000000A011029787030000A11102538701E6
:1004B3000000E114303132333435363738394142B4
:1004C3004344454600286E756C6C20706F696E74EA
:1004D3006572290030313233343536373839616249
:1004E30063646566003F3F3F000000807F0000803B
:1004F3003FF9021550B743BA510000204100E7DB32
:100503002E0000A040120135D5DA04120135EBDAD2
:100513000412013518DB0412013548DB04120135DE
:1005230069DB041201359ADB04120135EBDB04129B
:10053300013502DC041201356BD40412013582D477
:1005430004120135B1D404120135EAD40412013581
:1005530012D50412013540D50412013557D50412C2
:1005630001356ED50412013584D504120135ABD59E
:1005730004120135BED504120135D4D50412013558
:10058300E7D5041201350CD6041201358F8D031201
:1005930001358E8E03120135B88E031201350D8F8E
:1005A300031201352E8F03120135478F03120135D4
:1005B300498F031201356A8F031201356D900312BF
:1005C30001352A9103120135F791031201355B922C
:1005D30003120135F29203120135F592031201352C
:1005E3007B9303120135BE9303120135109403125A
:1005F3000135479403120135CD9403120135569505
:10060300031201359F9503120135AC950312013591
:10061300AF95031201350D9603120135259603128A
:1006230001359F9603120135A29603120135C59633
:1006330003120135C896031201356F970312013572
:10064300929703120135AA9703120135DA97031221
:100653000135E79703120135EA97031201355698DE
:1006630003120135449903120135FA990312013536
:10067300CDC803120135ADC9031201352DCA0312CA
:1006830001354DCA031201358BCA03120135DECA87
:100693000312013546CB03120135D7CB03120135C3
:1006A300A2CC03120135B1CF031201351DD10312C0
:1006B300013540D1031201353EC004120135CFC1CB
:1006C3000412013520C2041201357FC20412013520
:1006D3008DC204120135B6C204120135FCA1041205
:1006E300013524A20412013552A20412013589A254
:1006F30004120135F1A2041201353AA304120135A3
:1007030085A304120135C3A30412013500A4041206
:1007130001352EA404120135D5A404120135DFA43A
:1007230004120135ECA4041201351FA5041201358E
:10073300E1A504120135EDA50412013505A6041245
:1007430001350FA6041201358DA6041201357DE093
:10075300041201358BE004120135A3E004120135C4
:10076300BBE004120135D3E0041201356ACD021255
:10077300013508CE0212013580CE0212013595CF24
:1007830002120135CFCF0212013578D002120135A2
:100793004DD102120135B1D20212013508D3021232
:1007A30001358FD30212013576D402120135C3D439
:1007B3000212013551D50212013575D502120135E8
:1007C3004AD7021201358BD702120135ADD7021277
:1007D30001352ED80212013518D902120135DED99E
:1007E3000212013513DC02120135008004120135B7
:1007F300D280041201357B8104120135BE810412BB
:1008030001354B8204120135D78204120135B883B6
:1008130004120135E78304120135E3840412013520
:100823002B85041201352D860412013571860412BD
:1008330001359786041201352FE504120135C6B838
:1008430004120135DCB80412013502B90412013572
:100853002ABA0412013534BA041201358DBB0412CD
:1008630001358DBC0412013597BC04120135D69CA9
:10087300041201350B9E041201353E9E041201350C
:10088300889E0412013546A004120135F0EA0112D4
:1008930001356EEB011201357EEB0112013561EC7E
:1008A300011201358FEC011201359AEC0112013569
:1008B30084ED0112013520EE0112013524F00112FD
:1008C3000135DBF10112013557F20112013534F321
:1008D3000112013562F60112013500F701120135EB
:1008E3005DF801120135D0F90112013579FA0112CF
:1008F3000135C2FA01120135F9FA011201359EFBE5
:10090300011201351CFC0112013532AF021201350F
:1009130087AF02120135CCB002120135DCB00212EE
:100923000135FFB0021201354AB102120135EFB1B0
:1009330002120135E5B202120135AFB302120135DD
:1009430027B50212013569B50212013507B6021245
:10095300013554B6021201357AB60212013568B870
:10096300021201356DB8021201354EBA0212013579
:10097300A2BA0212013504BB021201352CBB0212CA
:100983000135D0BB0212013592BC02120135C3BC42
:1009930002120135C6BC021201350EBD0212013529
:1009A30050BD02120135B7BD0212013536CA041219
:1009B300013549CA0412013552CA041201356BCA02
:1009C30004120135B6CA0412013591CB0412013564
:1009D30020CC041201356BCC0412013527A6011279
:1009E300013537A6011201359AA601120135DFA69A
:1009F300011201358FA70112013563A801120135D8
:100A0300CBA801120135F4A80112013524A9011262
:100A1300013538AB0112013514AD01120135F4AEC5
:100A2300011201352CB001120135A5B201120135B5
:100A330091B301120135D7B401120135E4B50112A6
:100A4300013526B6011201355EB60112013578B6BD
:100A530001120135E0B6011201357ABB01120135ED
:100A63001BBC011201356FBC0112013596BC01128A
:100A73000135D4BC01120135F3BC0112013547BD68
:100A83000112013520BE01120135A7BF0112013544
:100A930030C0011201353378001201353D78001260
:100AA3000135D97800120135A07900120135BF79DB
:100AB30000120135E57900120135247A001201355F
:100AC3005C7A00120135857A00120135027B00122F
:100AD3000135177B001201352C7B00120135547B45
:100AE300001201358E7B00120135B27B00120135F5
:100AF3007B7C00120135917C00120135A47C00122D
:100B03000135B97C001201354B7D00120135857D1D
:100B130000120135B67D00120135E27D0012013568
:100B2300267E00120135967E00120135EA7E001200
:100B33000135337F001201355D7F00120135827F5D
:100B430000120135DAB404120135A4B504120135DB
:100B530087B604120135FDB6041201353FB70412FE
:100B630001356CB80412013581BE02120135AABEEB
:100B730002120135C3BE0212013508C0021201354B
:100B8300E6C00212013505C10212013592C10212FB
:100B93000135D5C1021201350DC30212013579C3E6
:100BA300021201356FC502120135FDC7021201356C
:100BB30090C80212013564C90212013507CA021234
:100BC3000135F1CA021201355DCC02120135F3CCB5
:100BD3000212013519DC0412013582DC04120135DD
:100BE300D6DC04120135FDDC041201352EDD0412BE
:100BF300013585B004120135F2B0041201353DB15F
:100C03000412013532B2041201352EB30412013538
:100C130018B40412013578D203120135BAD2031283
:100C2300013594D3031201356DD40312013568D510
:100C33000312013547D603120135B3D6031201352A
:100C430095D70312013500D80312013567D8031273
:100C530001356AD80312013595D80312013506D937
:100C63000312013599D90312013502DA0312013552
:100C730017DA031201355FDA0312013578DA03124A
:100C83000135DDDA03120135E0DA03120135CEC393
:100C9300041201350AC40412013548C40412013593
:100CA30012C50412013585C504120135C0C50412ED
:100CB3000135FEC5041201352EC60412013555C691
:100CC30004120135C0C60412013502C704120135EE
:100CD3004259001201359C5B00120135795E001206
:100CE3000135545F001201359F5F00120135EA5F41
:100CF30000120135FC5F001201353C600012013522
:100D0300716000120135BD6000120135EC60001204
:100D130001350F61001201359661001201358262BF
:100D2300001201352B6500120135166700120135DB
:100D3300596700120135BC6800120135FD680012C5
:100D43000135FF6900120135DB6B00120135906C30
:100D5300001201352A6D001201357572001201353A
:100D6300BB7200120135F972001201352C750012A5
:100D73000135397700120135097800120135BCD0ED
:100D8300041201355CD20412013507A703120135A1
:100D930032A70312013519AE031201353DB0031218
:100DA3000135F8B10312013555B30312013534335C
:100DB30000120135CB3300120135F833001201352F
:100DC3003E34001201357435001201359935001295
:100DD3000135303700120135AA3700120135EE37DD
:100DE30000120135633800120135923900120135C2
:100DF300F23A00120135F43B001201355D3D001259
:100E03000135AD3D00120135183F00120135824115
:100E1300001201355E42001201357742001201359E
:100E2300D44200120135F34200120135124300127D
:100E330001351543001201359B44001201359045DD
:100E4300001201358C46001201357347001201353B
:100E5300A6470012013516480012013588480012D2
:100E630001350249001201354C4900120135274A68
:100E730000120135F14A00120135F84B0012013519
:100E8300D74C00120135624D00120135D04D0012CE
:100E93000135444E001201356D4E001201352C4FC1
:100EA300001201353B520012013584520012013504
:100EB300C752001201354A5300120135EE53001296
:100EC30001357F5400120135A45400120135EE544C
:100ED300001201351655001201355B55001201351C
:100EE300D6550012013530560012013584570012D1
:100EF3000135415800120135145900120135AAEA8F
:100F030002120135FAEA0212013506EB021201352B
:100F1300E3EB0212013513EC021201354BEC021222
:100F23000135CAEC0212013502ED0212013554ED0E
:100F33000212013591ED02120135B6EF02120135AD
:100F4300E2F102120135DDF302120135B8F50212A6
:100F53000135F37F001201350C87041201353E8BF6
:100F6300041201358E8C04120135A09F0212013543
:100F730072A60212013578A60212013528A90212BF
:100F830001359997041201354598041201351399D7
:100F9300041201353D99041201358B9B041201356E
:100FA300998701120135E38701120135D7960112A2
:100FB3000135589801120135509901120135AF9F3F
:100FC30001120135AAA001120135E7A00112013572
:100FD3000AA1011201354CA10112013555A10112DB
:100FE30001355FA1011201354BA2011201353FA367
:100FF30001120135D8A30112013597C00112013541
:101003000FCB0112013515CB0112013521D201128B
:101013000135A1BC0412013537BD041201354DBDA4
:1010230004120135C7BD041201351DBE041201357A
:101033005BBE04120135B8BE0412013535BF04127C
:1010430001353EBF041201354ABF041201355DBFAD
:101053000412013599BF04120135AFBF04120135E3
:101063000EC0041201355AF90312013567F9031250
:10107300013581F903120135C0F903120135FEF977
:101083000312013563FA0312013578FA03120135AD
:1010930083FA0312013590FA03120135A7FA0312FA
:1010A3000135B5FA03120135C4FA03120135D9FA31
:1010B30003120135EEFA03120135F9FA0312013571
:1010C30005FB0312013512FB0312013521FB031249
:1010D30001352CFB0312013551FB03120135FAFBD9
:1010E300031201350AFC031201351FFC03120135FB
:1010F30034FC031201354EFC0312013569FC031263
:10110300013586FC0312013591FC031201354DFDB7
:101113000312013539FE031201355EFE0312013558
:1011230068FE031201357CFE031201359BFE031298
:101133000135FCFE0312013502FF0312013508FFDE
:10114300031201350EFF031201351AFF0312013595
:101153004DFF0312013596BE03120135C2BE0312C1
:101163000135A6BF0312013540C20312013556C330
:101173000312013573C40312013516C50312013579
:10118300BCC50312013505800312013587800312A4
:1011930001353081031201357882031201358684CB
:1011A300031201356C8503120135A1850312013544
:1011B300C385031201356C86031201353C88031283
:1011C3000135658803120135DD88031201350F8966
:1011D300031201351C890312013567890312013596
:1011E3008B8903120135DC8B03120135E68C031264
:1011F3000135428D0312013522DC0212013533DD44
:101203000212013517DE0212013521DE0212013509
:101213002BDE021201354DDE0212013559DE0212B8
:101223000135FDDF021201352AE00212013540E1EA
:101233000212013595E102120135E4E20212013591
:10124300B9E30212013515E40212013580E40212FA
:101253000135B5E402120135F8E402120135C2E7A3
:1012630002120135DAE7021201356BE80212013589
:1012730079E802120135C6E802120135D4E80212F8
:10128300013540E902120135BBE90212013512EAC8
:101293000212013578B3031201359AB303120135F3
:1012A300ABB5031201356AB80312013594B90312C1
:1012B300013552BA031201353EBB03120135B2D2D6
:1012C30004120135D7D2041201354DD3041201356E
:1012D3003DF20312013546F2031201354FF20312B8
:1012E300013527F303120135D8F40312013508F54C
:1012F3000312013533F50312013563F5031201358A
:101303008EF503120135C2F503120135EEF5031212
:10131300013531F6031201355CF603120135A3F6EC
:1013230003120135F8F6031201353AF703120135BA
:1013330094F703120135BFF7031201350EF80312B8
:1013430001353EF80312013569F80312013597F8A8
:1013530003120135BAF80312013538E604120135D8
:1013630064E60412013591E6041201359BE604128A
:101373000135ABE604120135429204120135809225
:10138300041201350E93041201355D9304120135E5
:101393009C9304120135489404120135A19404125C
:1013A3000135F094041201353F9504120135369648
:1013B3000412013524970412013561970412013593
:1013C300D0FC01120135F5FC0112013520FD01129B
:1013D3000135B5E604120135DCD601120135D3D847
:1013E3000112013580DA0112013568DB0112013582
:1013F300E3DB0112013562DC011201358BDC0112E2
:101403000135F3DC0112013571E101120135DFE130
:1014130001120135D0E2011201350AE3011201354F
:101423004AE3011201355FE4011201358BE4011235
:101433000135CDE40112013516E50112013583E5CD
:1014430001120135A5E501120135BFE50112013590
:10145300BAE601120135CAE60112013568E8011244
:1014630001357FE801120135B1E8011201353DEA8A
:1014730001120135B3EA011201355EE704120135A9
:10148300AA7F00120135E97F00120135E8FF03123C
:1014930001356CE1041201357CE10412013591E15F
:1014A3000412013545E20412013581DE04120135CF
:1014B30005DF041201356BDF041201354FDD041221
:1014C300013571DD04120135D2DD04120135E5DD8C
:1014D3000412013536DE0412013575DE04120135BE
:1014E30078DE041201357FE70412013582E7041226
:1014F30001351EA70412013532A704120135ABA72B
:101503000412013583A8041201353DAB04120135E1
:10151300A2AB04120135F5AB04120135F87F0012BA
:10152300013595CC0412013516CE0412013577CE60
:1015330004120135BDCE041201356FE704120135E3
:1015430074E7041201357BE7041201357DE70412C9
:1015530001354BE204120135CAE204120135D5E22A
:1015630004120135E5E204120135C8D7041201352E
:10157300EBD70412013514D804120135AED8041286
:101583000135C4D80412013506D90412013504DB30
:10159300031201350EDB031201354EDB0312013555
:1015A30097DB03120135CFDB0312013529DC03126C
:1015B300013546DC03120135E2DE03120135EBDEB1
:1015C3000312013532DF031201355BDF03120135EC
:1015D30065DF03120135D1DF0312013563E0031226
:1015E3000135CDE00312013500E1031201357FE13E
:1015F30003120135BAE103120135EDE1031201359E
:10160300FFE1031201352BE20312013534E2031229
:101613000135F2E2031201354FD904120135A2D983
:10162300041201350EDA041201357ADA0412013597
:101633004AC70412013572C70412013547C80412A0
:1016430001353BC904120135C9C90412013584DFD0
:1016530004120135C0CE04120135F6CE0412013551
:1016630029CF0412013582D00412013586E3041216
:1016730001359CE304120135A6E304120135EEE3C0
:101683000412013519E404120135A4E404120135EE
:101693001EE303120135E7E30312013522E40312CB
:1016A300013553E403120135B3E403120135FDE4BC
:1016B300031201354BE503120135D6E5031201355B
:1016C300CFE60312013573E803120135F3E8031281
:1016D30001355EE90312013571E90312013558EA58
:1016E30003120135A2EA0312013506AC04120135D7
:1016F3001CAC04120135BDAC04120135FCAC041260
:10170300013519AD041201354AAD0412013597AD07
:1017130004120135CAAD0412013505AE04120135B8
:1017230010B00412013578B004120135659A031222
:1017330001358C9D03120135069F031201355D9F10
:10174300031201357A9F03120135F89F0312013505
:1017530075A10312013548A2031201358DA50312A9
:10176300013571A603120135DE8F02120135049093
:10177300021201353390021201359B90021201359A
:101783001A91021201352C9102120135C4910212F1
:101793000135D59302120135FC93021201352494CD
:1017A300021201355C94021201355F940212013575
:1017B300A19402120135B09402120135BB940212B6
:1017C3000135099502120135109502120135BD95B7
:1017D30002120135C79502120135E2950212013555
:1017E300F89502120135519802120135139902122C
:1017F300013579F8021201356AF90212013594F9BB
:10180300021201359BFA0212013528FB021201353F
:1018130033FB0212013515FE0212013518FE0212C6
:1018230001351BFE0212013536FF0212013511EBA1
:1018330003120135BCEE03120135DDEF031201354E
:10184300C7F003120135CAF0031201352AF103125E
:101853000135B3F103120135D18C041201350E8D1C
:10186300041201352B8D04120135768E04120135D5
:10187300268F04120135449004120135009204129C
:1018830001351ED60412013563D604120135B4D6D0
:101893000412013533D70412013593D704120135ED
:1018A3000080021201350C8502120135D0FF0112AE
:1018B3000135F0E2041201351AE30412013527E77A
:1018C30004120135D4FF02120135CAFF03E066702A
:1018D3001008A3E066700A08A3E066700408A3E09A
:1018E3006622C008C3E096F50808A3E096420808FC
:1018F300A3E096420808A3E0964208A2D265D0333B
:10190300E5087001D3D00822C3E7960809E79608D3
:1019130009E7960809E79622C3E09608A3E096082C
:10192300A3E09608A3E09622C008C3E096F5080852
:10193300A3E096420808A3E096420808A3E0964570
:10194300087001D3D00822080808E630E7111222F4
:1019530004121962080808C64480C6181818221809
:101963001818E9799EC608CAC608CBC608CCC6C3F0
:1019730070207996CACBCC7019798ECBCC70137941
:1019830086CC700EF9802ACA33CACB33CBCC33CC86
:10199300331930E7F2CCCBCA3350147004EA30E089
:1019A3000DE4CA3ACACB3BCBCC3CCC500209C3E9C9
:1019B30013C6CC182313C6CB18C6CA18C6F92212ED
:1019C3001A0220F01430E72B74FFFCFBFA747F80BB
:1019D30022E4FCFBFA7480801AB48008BC00F2BBDA
:1019E30000EF800F50EBF9E4C39AFAE49BFBE49C0D
:1019F300FCE499C6CC18C6CB18C6CA18C6F922E4AB
:101A0300C9C608CAC608CBC6D3330308CCC63392AB
:101A1300F0C3947F402E94184019C9B90704CACB68
:101A2300CC225025C309CA33CACB33CBCC33CC33F6
:101A3300D9F422F4600DC9CCC313CB13CBCA13CA98
:101A4300D9F6CC22E4FCFBFA2214FCFBFA22E626AC
:101A530018461846184622E72719471947194722F7
:101A6300181818E60846087009E626087005E633D4
:101A7300F4220822191919E70947097009E7270908
:101A83007005E733F4220922E6084608C313460823
:101A9300336002E633F422E7094709C313470933E6
:101AA3006002E733F422121A8B6025121A9A60201F
:101AB300121A517003021A5A080808E766701018C0
:101AC30019E766700A1819E76670041819E76622A1
:101AD300F422121A8B601C121A9A6017121A517090
:101AE30007121A5A7001D322C0D0121A5A7006D0A4
:101AF300D0B322C32233D0D0501430E0F6C3E796DC
:101B03000809E7960809E7960809E796B32220E053
:101B1300D5E6970809E6970809E6970809E697B313
:101B230022121A8B601B121A9A6016121A5170072E
:101B3300121A5A600CB322C0D0121A5A7005D0D0B0
:101B430022C32233D0D0501330E0EBC3E796080909
:101B5300E7960809E7960809E7962220E0E4E69766
:101B63000809E6970809E6970809E6972200121A7A
:101B73008B604F121A9A6012E7548066F6121A634A
:101B83007011121A5A703B090909F4F618F618F67F
:101B930018F622121A777015121A5108080860EA0B
:101BA300E6447FF618768018E4F618F622121A51E6
:101BB3006016121A5A7012E4F608F608F608E6548C
:101BC30080F609090918181822EAC0E0EBC0E0EC16
:101BD300C0E0EDC0E0E687F0A4FBACF008E687F0D8
:101BE300A42CFCE435F0FA1809E687F0A42C4B602A
:101BF300027401CA35F0FCE433FB09E687F0D2F73F
:101C0300A42CCB35F0FC1908E687F0A42BCC35F0D7
:101C1300FBE433FD0819E687F0D2E7A42C4ACB3561
:101C2300F0CD3400FC09E687F0D2E7A42DCC35F0E3
:101C3300FDE433FA0918E687F0D2F7A42CCD35F08A
:101C4300CA3400FC08E687F0D2E7D2F7A42ACC35E1
:101C5300F07A7E20E70B0ACB33CBCD33CDCC33CC1C
:101C630033CB3350147004ED30E00ED2F1E4CD3DAC
:101C7300CDCC3CCC3B5005DA05C2F1EB547FC633E7
:101C830008E63392F0FBE73309E733C39A502D2B71
:101C930070190C0D4C4D70151806E608C333700D02
:101CA30020F10AA2F013F6E418800B4024E4F63086
:101CB300F002768018F618F618F68024D33B1450F9
:101CC3001074FFA2F013F6187680E418F618F68065
:101CD3000FA2F013F618E63303F618ECF618EDF638
:101CE300D0E0FDD0E0FCD0E0FBD0E0FA22121A9A5B
:101CF3006046121A8B603DE9687008F618F618F60C
:101D030018F622748067F7121D2409090974806785
:101D1300F722121A8B601D121A9A7005191919806D
:101D23001A121A63701F121A77C37003E667331906
:101D3300191940071818182208080874FFF618F62E
:101D430018F618F622121A776017121A5A7021928F
:101D5300F0121A517019501720F0140808080909D5
:101D630009E7F61819E7F61819E7F61819E7F6223E
:101D7300121A5160E6E869701F0808E62480F60825
:101D8300E436F618547FB47F0CE654806007F6E41B
:101D930018F618F622181822E9C6CC08C6CD08C6CC
:101DA300CE08C6CFC0E0E8C0E0EAC0E0EBC0E0097F
:101DB300E9F809E7FA09E7FBE6F918E6F8C3EC984E
:101DC300ED99EE9AEBC2E7F5F0EFC2E795F0500E0E
:101DD300600CEBCFFBEACEFAE9CDF9E8CCF8EAA246
:101DE300E7D2E7FAEB33FB13F5F0EEA2E7D2E7FE17
:101DF300EF33FFC5F013A2E730E601B313C5F0C319
:101E0300C0E0C0F07F00C39BFB605E9418600F408E
:101E13001D14601AD0E023F9D0E0F8021EF68AF010
:101E2300E9486003D2F0E4AFF0FAF9F8803BEB3015
:101E3300E40D89F0EA6003D2F0E4AFF0F9CAF8EBFD
:101E430030E30D88F0EF6002D2F0AFF0E4CAC9F8D6
:101E5300EB54076014FBC3EA13FAE913F9E813F828
:101E6300EF135002D2E0FFDBEDD0E0C0E030E73902
:101E7300C3E49FFFF5F0EC98FC42F0ED99FD42F0CE
:101E8300EE9AFE42F0D0E0F9D0E0F8E5F0607AE9AE
:101E930023F9EE20E742D8028067C3EF33FFEC3328
:101EA300FCED33FDEE33FE80EAEC28FCED39FDEE6C
:101EB3003AFED0E023F9D0E0F84002801BC3EE13D2
:101EC300FEED13FDEC13FCEF135002D2E0FF08B854
:101ED30000067F7F74FF802EEF3350178CF020F0C5
:101EE3000260100CBC000C0DBD00080EBE000408FF
:101EF300E860DFE933E813FFEE2313FE4F4D4C8018
:101F030008E95480FFE4FEFDFCEE33EF33F4700484
:101F1300FCFD7E80D0E0FBD0E0FAD0E0F8D0E0CF4B
:101F2300C618CEC618CDC618CCC6F922121A8B70A5
:101F33000418181822121A9A700D74FFF61819F65D
:101F43001819F61819F622E7548066F6121A51701A
:101F53000F121A5A70F014F608F608F608F680D134
:101F6300121A5A700CF608F608768008E6447F8049
:101F7300EC121A7A700C121A6660BFE65480F6E40B
:101F830080BB121A66700519191980A5E869700CCF
:101F9300763F18768018F618F6E8F922E6CDC0E009
:101FA30018ECC0E0E633CD33CDD313F6E719FCE7E5
:101FB300191933CC33C3947F400ECD9D502408E6CA
:101FC3005480F6E418F6800FF4043D14501408E628
:101FD300447FF6187680E418F618F6D0E0FCD0E0DB
:101FE300FD22CCD313CCFD18E4C6CBC0E018E4C665
:101FF300CAC0E00808ED08C633E613F618E433C692
:1020030075F003C3CA97CA09CB97CB199C40047DCB
:1020130008802EBD00030220D816B6FF0506060869
:102023001618C3CA33CACB33CB33CA27CA09CB3733
:10203300CB193CC37D08803E187D0820E75CC6337E
:10204300C6CA33CACB33CB33DDF1D5F0EB30E77BF4
:10205300CA97CA09CB974ACB199C406F4B7025E6A8
:1020630020E0218066187D08C3CA97CA09CB97CBA5
:10207300199CD3C633C6CA33CACB33CB3350C9DD5D
:10208300E7D5F0E1D3E4C636C608C636C608C63679
:10209300C608C636C61818188031C3CA97CA09CBF2
:1020A30097CB199CB34097C633C6CA33CACB33CB3D
:1020B30033DD34D5F02EC6A2E0C640C8CA27CA090C
:1020C300CB37194A70BECB3CB480B90808E6330855
:1020D300E633601F181818D0E0FAD0E0FBD0E0FC1C
:1020E300D0E0FD22187D08CA27CA09CB37CB193C9B
:1020F300D3808013F618E4B67F11F618B6FF0EF6F8
:1021030018C60470D20808768080CAF618F618F646
:1021130080C5080808EAC0E0EBC0E086F0E7A4FA4F
:10212300180986F0E7A42AFA180986F0E7A42AFA20
:10213300180986F0E7A42AFA1986F0E7A4FBE5F06C
:102143002AFA190886F0E7A42BFBE5F03AFA1908F6
:1021530086F0E7A42BFBE5F03AFA18180986F0E7B6
:10216300A4C5F02BFBE43AFA1908E7C5F0C6A42688
:10217300F6E5F03BFBE43AFA1886F0E7A4F6E5F05F
:102183000826F6E43B08F6E43A08F6D0E0FBD0E094
:10219300FA22E4CFC0E0E4CEC0E0E4CDC0E0E4CC7A
:1021A300C0E075F020E626F608E633F608E633F6D7
:1021B30008E633F6181818EC33FCED33FDEE33FE66
:1021C300EF33FFC3EC9709ED9709EE9709EF9719E2
:1021D3001919400FFFEC97FC09ED97FD09EE97FEE7
:1021E300191906D5F0BFECF709EDF709EEF709EF7A
:1021F300F7191919D0E0FCD0E0FDD0E0FED0E0FFE4
:1022030022181818E4C396F608E496F608E496F63E
:1022130008E496F6226016080808C6C313C618C653
:1022230013C618C613C618C613C6D5E0EA2270092A
:10223300080808226016181818C6C333C608C63320
:10224300C608C633C608C633C6D5E0EA22E627F673
:102253000809E637F60809E637F60809E637F622ED
:10226300E026F608A3E036F608A3E036F608A3E076
:1022730036F622E026F008A3E036F008A3E036F0B5
:1022830008A3E036F022C3E697F60809E697F608B6
:1022930009E697F60809E697F622C3E0C696F6081C
:1022A300A3E0C696F608A3E0C696F608A3E0C69692
:1022B300F622C3E096F008A3E096F008A3E096F0B8
:1022C30008A3E096F022E657F60809E657F6080950
:1022D300E657F60809E657F622E056F608A3E05655
:1022E300F608A3E056F608A3E056F622E056F008F7
:1022F300A3E056F008A3E056F008A3E056F022E06E
:1023030066F608A3E066F608A3E066F608A3E066AF
:10231300F622E0F608A3E0F608A3E0F608A3E0F649
:1023230022E6F008A3E6F008A3E6F008A3E6F0220D
:10233300E0FAA3E0FBA3E0FCA3E0FD22EAF0A3EBB9
:10234300F0A3ECF0A3EDF022E0F8A3E0F9A3E0FAA8
:10235300A3E0FB22E8F0A3E9F0A3EAF0A3EBF02269
:10236300CAC0E0E6F0A308DAFAD0E0FA22CAC0E075
:10237300E0A3C582CCC582C583CDC583F0A3C58246
:10238300CCC582C583CDC583DAE6D0E0CA22C3E4D7
:1023930098F8E499F91223D28026C3E49AFAE49BCD
:1023A300FBE920E7E91223D2E498F8E499F922C380
:1023B300E498F8E499F91223D2E498F8E499F9C37C
:1023C300E49AFAE49BFB22EB20E7CFE920E7E0B9AC
:1023D3000010BB0008E88AF084F8AAF022E4FBC8E6
:1023E300FA22EB70227B10C833C8C933C9335007B4
:1023F300C39AC3DBF280069A50012ADBEAC833F49E
:10240300C8C933F4C9FA2275F008E4C833C8C9331C
:10241300C933C99AC99B5004C92AC93BD5F0ECFBFF
:10242300C833F4C8E4C9FA22600D08C6A2E713C68C
:1024330018C613C6D5E0F322600C08C6C313C6182A
:10244300C613C6D5E0F422700422600D18C6C33348
:10245300C608C633C6D5E0F41822251810AF08F510
:1024630018400C15198008F51840021519D2AF222F
:1024730000C0D0251810AF08F518500C05198008B6
:10248300F51850020519D2AFD0D0222518F58210C5
:10249300AF08F518400C15198008F51840021519F6
:1024A300D2AF851983222518F582E43519F58322E5
:1024B3002518F8E43519F9222518FAE43519FB2211
:1024C3002518FCE43519FD22E4732518C582C0E004
:1024D300E51934FFC583C0E0E518C3958224F810DD
:1024E300AF0885831985821880088583198582182A
:1024F300D2AFCEF0A3E520F0A37808E608F0A3DE80
:10250300FAEFF0A3E58124FAF8E608F0A3E608F071
:10251300A3E608F0A30808E608F0A3E608F0A3156D
:10252300811581D0E0FED0E0F8158115811581E891
:10253300C0E0EEC0E0222518C582C0E0E51934FFF3
:10254300C583C0E0E518C3958224F910AF088583DD
:10255300198582188008858319858218D2AFCEF039
:10256300A3E520F0A37808E608F0A3DEFAEFF0A3D2
:10257300E58124FBF8E608F0A3E608F0A30808E6E3
:1025830008F0A3E608F0A315811581D0E0FED0E0A2
:10259300F815811581E8C0E0EEC0E0228519838536
:1025A3001882E0A3FEE0A3F5207808E0A3F608DF95
:1025B300FAE0A3FFE0A3C0E0E0A3C0E0E0A3C0E033
:1025C300E0A3C0E0E0A3C0E010AF088582188583D4
:1025D300198008858218858319D2AFD083D08202EF
:1025E3000132851983851882E0A3FEE0A3F52078E4
:1025F30008E0A3F608DFFAE0A3FFE0A3C0E0E0A34E
:10260300C0E0E0A3C0E0E0A3C0E010AF08858218FB
:102613008583198008858218858319D2AFD083D02A
:102623008222C0D02518C582C0E0E51934FFC583D6
:10263300C0E0E518C3958224F310AF08858319859C
:1026430082188008858319858218D2AFC8F0A3E960
:10265300F0A3EAF0A3EBF0A37908E709F0A3D8FA13
:10266300ECF0A3EDF0A3EEF0A3EFF0A3D0E0F0A322
:10267300D0E0F0A3D0E0F0A3E520F0A3E5F0F0A3D1
:1026830022851983851882E0C0E0A3E0F9A3E0FA6C
:10269300A3E0FBA37808E0F608A3DFFAE0FCA3E0DD
:1026A300FDA3E0FEA3E0FFA3E0C0E0A3E0C0E0A33E
:1026B300E0F5D0A3E0F520A3E0A3F5F010AF088583
:1026C30083198582188008858319858218D2AFD033
:1026D30082D083D0E0F8D0E03274048006740280A4
:1026E300027401C0E0F40412248ED0E012236322AA
:1026F3007404800474028000CCC0E0EDC0E0E518EF
:10270300C39CCCAD1950011D10AF068C188D1980D8
:10271300068C188D19D2AF122370D0E0FDD0E0FCE7
:1027230022D083D082E9C0E0E493A3C386F0C5F04E
:1027330095F0F908E493A386F0C5F095F0700BE4E7
:1027430093A3C3994005E9048002A3E475F002A4AE
:102753002582F582E5F03583F583D0E0F9E493A390
:10276300C0E0E493C0E022D083D082ECC0E0EDC0AF
:10277300E0E493A3FCE493A3FDED4C600D1227B6B4
:10278300EC24FFFCED34FFFD80EFE493A3FCE49322
:10279300A3FDED4C600D1227F5EC24FFFCED34FF97
:1027A300FD80EFD0E0FDD0E0FCE493A3C0E0E49330
:1027B300C0E022C0E0C3E4939608740193961840E6
:1027C3000FE493667008087401936618700070191B
:1027D300A3A3C3E49396087401939618A3A3400D8F
:1027E300D0E0D0E0D0E00227A6A3A3A3A3A3A3D065
:1027F300E022C0E0C0F088F0E4936670080874013A
:102803009366187000A8F0A3A3700BD0F0D0E0D0AB
:10281300E0D0E00227A6A3A3D0F0D0E02274F51203
:102823002539EAFEEBFFEE2434F8EF3400F988088B
:102833008909EE2435F582EF3400F583E0F8EE24C0
:1028430037F582EF3400F583E0F50AEC850AF0A44E
:10285300FCAAF0850AF0EDA42AFDE82CF8E43DF982
:102863007A257B001223D2EA850882850983F054F6
:1028730007F87401B800028004C333D8FCC0E0E059
:10288300131313541FF8EE28F8EF3400F9E8245D0E
:10289300F582E93400F583D0E0F8E0586008EE24CF
:1028A30034F582EF801EEE2436F582EF3400F58393
:1028B300E0F5F0EA84A8F0EE28F8EF3400F9E82414
:1028C30038F582E93400F583E0F97F040225E574E5
:1028D300F5122539EAFEEBFFEE2434F582EF3400DE
:1028E300F583E0C0E0EE2435F582EF3400F583D0C4
:1028F300E0F08E828F83A3A3A3A3A3A3A3C082C06C
:10290300838E828F83A3A3A3A3A3E0F8A3E0F9D0CC
:1029130083D082E0C398F508A3E099F509EE2480FB
:10292300F582EF3400F583E064017069EE2481F5EC
:1029330082EF3400F583E0F8A3E0F98E828F83A35E
:10294300A3A3A3A3A3A3E0FCA3E0FD8E828F83A391
:10295300A3A3A3A3E0FAA3E0FBC3EA9CEB9D502748
:10296300C3EC98ED99402EC3EA98EB9950277CF07D
:102973007D07EEFAEFFB120E98EE2480F582EF341A
:1029830000F583E4F0800EC3EA98EB9940E0C3ECD2
:1029930098ED9950D9EE2434F8EF3400F9E8FCE9C6
:1029A300FDEE2435F582EF3400F583E0F8EE2437AD
:1029B300F582EF3400F583E0F50AE508850AF0A413
:1029C300F508AAF0850AF0E509A42AF509E825081F
:1029D300F8E43509F97A257B001223D2EA8C828D3B
:1029E30083F05407F87401B800028004C333D8FCA1
:1029F300C0E0E0131313541FF8EE28F8EF3400F986
:102A0300E8245DF582E93400F583D0E0F8E058600E
:102A130008EE2434F582EF801EEE2436F582EF347F
:102A230000F583E0F5F0EA84A8F0EE28F8EF34002F
:102A3300F9E82438F582E93400F583E0F91232CD60
:102A43000228CDC082C083851882851983E0F8A34C
:102A5300E0F9C3EA9CEB9D5012C3EC98ED99401941
:102A6300C3EA98EB99501279018010C3EA98EB9965
:102A730040F5C3EC98ED9950EE7900D083D08222D3
:102A8300EAC39CFAEB9DFB22008521878522C6229F
:102A9300C0E0C0D0E8C0E0E9C0E0EAC0E0EBC0E0DD
:102AA300ECC0E0EDC0E0C008C009C00AC00BC082A2
:102AB300C083C0F0759B00906182E0A2E6400302F0
:102AC3002B71E591A2E64003022B717591BF90042F
:102AD300A7E06405700812103C121048800312101E
:102AE300427521001210B4E99004A8F07900121085
:102AF30096120DC07A017B009004A6E0F91215EE40
:102B0300907803E064426003022BBA90087CE014DF
:102B1300F06003022BBAC2AF122B1E00782AD0E05A
:102B2300F618D0E0F6E59F5407F970059086BD804E
:102B3300039086AD7808122315E9C4C0E07829E62E
:102B43005508F50808E65509F509740B78081224A9
:102B53003BD0E02508F8906270E0A2E740F8E8C3B4
:102B630033906272F0906270E0D2E0F08049E0A2AC
:102B7300E55024E591A2E5501E7591DF9004A7E08E
:102B8300640D70139004C9E004F064287002E4F04B
:102B93007A00E0F912114A906181E0A2E35009E55D
:102BA300E9A2E3500375E9F7A3E0A2E75009E59131
:102BB300A2E7500375917FD0F0D083D082D00BD0A1
:102BC3000AD009D008D0E0FDD0E0FCD0E0FBD0E093
:102BD300FAD0E0F9D0E0F8D0D0D0E032C0E0C0D0F5
:102BE300C082C083906183E0A2E05009E5BFA2E008
:102BF300500375BFFEE0A2E15009E5BFA2E1500317
:102C030075BFFDE0A2E25009E5BFA2E2500375BF24
:102C1300FBE0A2E35009E5BFA2E3500375BFF7E071
:102C2300A2E45009E5BFA2E4500375BFEFE0A2E5BB
:102C33005009E5BFA2E5500375BFDFE0A2E65009E6
:102C4300E5BFA2E6500375BFBFD083D0828088C0A2
:102C5300E0C0D0E8C0E0E9C0E0EAC0E0EBC0E0ECEF
:102C6300C0E0EDC0E0C0F0E5A7A2E6500FE5A1A2E9
:102C7300E6500953A7BF75A1BF122CB7E5A7A2E57C
:102C8300500CE5A1A2E5500653A7DF75A1DFE5A728
:102C9300A2E15009E5A1A2E1500375A1FDE5A7A2B8
:102CA300E2500CE5A1A2E2500653A7FB75A1FBD0AD
:102CB300F0022BC874F81225397521019004A7E09E
:102CC30064067015120FCA8A828B83A3A3A3A3A3DE
:102CD300A3E0FAA3E0FB12102AA2AFE433FED2AFC3
:102CE3009004ADE0640170187A207B009004A6E0A4
:102CF300F912170E7A207B009004A6E0F91215F45E
:102D0300906182E0D2E6F090087BE0602185C622E4
:102D130080169004ACE064017008E5C654F84405DD
:102D2300F5C653BEFC122A8C7401652160E4EEA241
:102D3300E092AF7F010225E5008E238F2485822850
:102D4300858327851882851983E0CEA3E0CF852864
:102D530082852783EBC9EAC8EDCBECCA75F010C3B3
:102D6300E833C8E933C9EA33CAEB33CBC3EA9EF588
:102D730026EB9FF525B35004AB25AA26EC33CCED07
:102D830033CDD5F0DAAE23AF242274EB1225397498
:102D9300FA12245D8A088B098C148D159004A7E020
:102DA30024F7C3940550069086C9022EEF120FCA6A
:102DB3008A0A8B0BAE0AAF0BEE4F7003022EECACFC
:102DC30008AD09851882851983AA82AB8312105A2C
:102DD3008E828F83A3A37808122315908695780893
:102DE3001222DC851882851983780C1223159086AC
:102DF30095780C1222DC7808790C12190B501F7885
:102E030008790C1222899086DD780812192B404725
:102E1300850810850911850A12850B138041850CDD
:102E230010850D11850E12850F1378107908122263
:102E3300899086DD781012192B501C7510007511BE
:102E4300007512007513017810790C12228978101D
:102E5300790812225080089086C9781012231574BD
:102E630009781012223190870578081223157810FB
:102E730079081221958E828F83A3A3A3A3A3A3E032
:102E8300F8A3E0F97AD07B031223D288088909E4F6
:102E9300F50AF50B7810790812225074041224A94C
:102EA300E0F8A3E0F97AD07B031223D2E8FA8A0888
:102EB300E4F5097810790812190B5007781079088E
:102EC3001222899004A7E06408600AE064066005A2
:102ED300E06405701C908735781012192B501290FE
:102EE3008731781012226380089086E978101223C4
:102EF30015851482851583781012232474061224F1
:102F0300737F0E0225E574F712253912106C9008B1
:102F130079E064017010906245E4F0A3F053F4F398
:102F230043FE0C5390F3121018E5C654804449F540
:102F3300C6E59E547F644970F8906185740FF090E4
:102F43000877E0F47002A3E0604E900878E0600830
:102F530014601B14602E80407508017509009008E9
:102F630077E0780812244AE508F45280802A75082D
:102F730001750900900877E0780812244AE508F4FF
:102F830052908014750801750900900877E078085D
:102F930012244AE508F452A079007F020225E57461
:102FA300F7122539E9FEEAFF74016E700C7A807B13
:102FB300009004A6E0F91215EE90332CE493F4602C
:102FC30008E493F9120DB4800953C680E59E547F3B
:102FD30070FA12101E900879E064017003120DD28A
:102FE300900877E0F47002A3E0604B900878E0600B
:102FF3000814601A14602C803D750801750900904F
:103003000877E0780812244AE5084280802875088A
:1030130001750900900877E0780812244AE5084210
:10302300908013750801750900900877E0780812FD
:10303300244AE50842A012106C120FCA8A088B09B1
:10304300A808A909E8496015E5E170FCE82414F52E
:1030530082E93400F583E0F46003E0F5E174016F85
:10306300700A7A019004A6E0F9121678022F9D7473
:10307300F11225398A088B098C0A8D0B740F1224DF
:10308300A9780C12231590869578081222DC908675
:1030930095780C1222DC7808790C12190B501578EC
:1030A30008790C1222899086DD780812192B4015B5
:1030B30079018013780C79081222899086DD780CC7
:1030C30012192B40EB79007F080225E574ED1225D8
:1030D300398A088B098C0A8D0B74131224A9780C76
:1030E30012231590869578081222DC908695780C29
:1030F3001222DC780C790812190B40117808790C2C
:10310300122289AA08AB09AC0AAD0B802275100004
:103113007511007512007513017810790C1222894C
:1031230078107908122250AA10AB11AC12AD137F9C
:103133000C0225E590869578081223158A828B83E5
:1031430078081222EF7F040225E574F51225398CE5
:10315300828D8378081223158A828B837808122242
:10316300B5EA2404F8EB3400F98C828D83A3A3A37E
:10317300A3E0FCA3E0FD88828983C3E09CF0A3E085
:103183009DF088828983C3E09420A3E0944E40227B
:103193009086D178081223158A828B8378081222AD
:1031A300768A828B83A3A3A3A3E02420F0A3E03435
:1031B3004EF0808074F5122539E9FE900807E0FA95
:1031C300A3E0FBEEC333F8E433F9748728F5827484
:1031D3008339F583E02AF508A3E03BF50978081263
:1031E30026E090873D122333122D3C740212247380
:1031F3008A088B098C0A8D0B74107808122218AA7E
:1032030008AB097F040225E574F11225398A0C8B7A
:103213000D8C0E8D0F740F1224A9E0FAA3E0FB743A
:10322300111224A9E0F508A3E0F50974131224A9E7
:10323300E0FEA3E0FF78081226E0EA2401F508EB9C
:103243003400F509E4F50AF50B780C790812211519
:1032530090872D7808122315780C7908122115AA66
:103263000CAB0DAC0EAD0F122D3C74021224738BFC
:1032730009EA450960047A0180027A00EC2AFCED30
:103283003400FDECF8EDF97A717B021223D2880841
:103293008909E4F50AF50B8E828F837808122324BB
:1032A300ECF8EDF97A717B021223D28A088B097448
:1032B30005780812244A8E828F83A3A3A3A3E5086B
:1032C300F0A3E509F07F080225E5C082C083E990F9
:1032D3006000F0D083D08222C0E074F2122625A2CF
:1032E300AFE433FED2AFE589A2E04006E589A2E16F
:1032F30050031214D4758900758900C2C5751A006C
:10330300EEA2E092AF7F01022684C0E0C0D0E8C005
:10331300E0A8A8D2AFC2C7751A00E8A2E792AFD05F
:07332300E0F8D0D0D0E03249
:10332C00FFFFFFFFFFFFFFFFC082C083906190741F
:10333C0004F0A37448F0A37402F09061807440F020
:10334C009061BC7403F09061877419F0906265749D
:10335C001BF090619C740DF090619A7433F0A3741F
:10336C0055F09061A0743AF0900879E0640170090E
:10337C00C2919004AB746780059004AB7461F090BB
:10338C003332E493906186F090332CE493F460270D
:10339C00E493540FF8906185E0686012E5C65480A0
:1033AC004449F5C6E59E547F644970F8E8F053C66D
:1033BC0080E59E547F70FA790512112C023D56C09F
:1033CC0082C083E9540FF9906185E0696012E5C60B
:1033DC0054804449F5C6E59E547F644970F8E9F081
:1033EC0053C680E59E547F70FA023D56C082C0835E
:1033FC00E5A8F853A87E906181E4F0A3F0A3F0C295
:10340C00BA539AFEC289759B00C2C275E9007591C8
:10341C000075BF0075A91175B905906181F0A37491
:10342C00C0F0A3E4F0D2BA439A0174805842A802C7
:10343C003D56C082C08374F812245D9004A9E0F854
:10344C00A3E0F9E849700302356C9004A9E05440FC
:10345C0060237908851882851983AA82AB83120FA1
:10346C000A851882851983AA82AB83120B2C9004CF
:10347C00A9E054BFF0E054806010790C7A9D7B0871
:10348C00120F0A9004A9E0547FF0E0A2E0503190B2
:10349C00619A7433F0A37455F09061A0743AF09073
:1034AC000879E064017009C2919004AB74678005DF
:1034BC009004AB7461F0120B329004A9E054FEF04E
:1034CC00E05402603190619A743FF0A3745AF0900A
:1034DC0061A0747FF0900879E064017009D291903A
:1034EC0004AB747180059004AB746AF0120B3290CB
:1034FC0004A9E054FDF0E054046013903330E493DD
:10350C00906186F0120B389004A9E054FBF0E05463
:10351C00086013903331E493906186F0120B38906D
:10352C0004A9E054F7F0E054106013903332E493A4
:10353C00906186F0120B389004A9E054EFF0E0543F
:10354C0020600A120B389004A9E054DFF0A3E05479
:10355C0001600D120DD2120B3E9004AAE054FEF045
:10356C007408122473023D56C082C083E9600814AB
:10357C00600A14600C8013903330800890333180D3
:10358C0003903332E493906186F0023D5674EC1252
:10359C0024CD74F412245D851882851983AC82AD18
:1035AC008375838775820D74041223709033309366
:1035BC00F46003023726907808E0C39402500302AB
:1035CC00370674041224A9AC82AD83758385758289
:1035DC00B57408122370851882851983858212852B
:1035EC00831374041224A9AC82AD83750EFF750F7E
:1035FC00FF7FFF7E00750C48750D78801574086E82
:10360C00700302369974096E7003023699740A6E4F
:10361C00607B850C82850D8378081223158C828D36
:10362C0083A909E50AC9F8881074187808122218B9
:10363C00E5104508F8C3E098A3E099850C82850D48
:10364C0083780812231540188C828D83741878089F
:10365C00122218E5104508F8E0C398F8A3E0801C86
:10366C0074187808122218E5104508FAE9FB8C82C8
:10367C008D83E0F8A3E0F9EAC398F8EB99F9C3E875
:10368C00950EE9950F5006880E890FEEFF0EE50C8E
:10369C002404F50CE50D3400F50DEEC39413500322
:1036AC0002360974FF650E700474FF650F60238F7A
:1036BC00087402780812244A74482508F582747834
:1036CC003509F5837808122315851282851383E555
:1036DC0008F0EC24020C0CED3400FD8512828513ED
:1036EC0083A3858212858313740C1224A9E5826C42
:1036FC007003E5836D60030235F7750801750900E9
:10370C0078081226E074021224A9AC82AD837ACC1C
:10371C007B0C1214B07402122473740C1224737F79
:10372C000C02259FC082C0839061AE7468F0A374B4
:10373C006AF090624574FBF0A304F053F4FD43FE71
:10374C00029008797401F09061A0E0643A90619A5B
:10375C0070237433F0A37455F09061A0743AF07434
:10376C000164017009C2919004AB746780289004C5
:10377C00AB74618021743FF0A3745AF09061A07413
:10378C007FF0740164017009D2919004AB74718064
:10379C00059004AB746A023AEE7F0402259FC08246
:1037AC00C083900857E06401701590085DE06401D7
:1037BC006009E0700AA3E064017004790C80209029
:1037CC00086EE064017008900874E0640160EC908D
:1037DC000801E064017006900806E070DE790002D2
:1037EC003D56C082C08375E1F1900804E060551429
:1037FC0060081460591460518059120DE49007FA56
:10380C00E0F97AFB7B071210789086811223331231
:10381C0010C690869D122333121084900805E0F98F
:10382C0012109079011211209007F8E02416F8A3D9
:10383C00E03400F9888289837414F0A3740EF07953
:10384C0000023D56120DEA80B4120DF080AF120D3D
:10385C00F680AA791280EA74F41224CD75D90D90F1
:10386C0007E9E0A2E0E4331313F89007FAE0C4335D
:10387C003354C0484401F5D978F879078882898394
:10388C00A3A3A3E0F5D988828983A3A882A983E89E
:10389C0064FE7003E9640770E378E979078882892C
:1038AC0083A3E0F5D988828983A3A882A983E864DD
:1038BC00EF7003E9640770E575E1959007E9E0F9AD
:1038CC007AEA7B0712107E901295748AF0A3740D1D
:1038DC00F0A37452F0A3740FF0A37452F0A3740FFE
:1038EC00F0A37452F0A3740FF0A37490F0A3740DB2
:1038FC00F0A37452F0A3740FF0A374A8F0A3740D8A
:10390C00F09012A37452F0A3740FF0A37452F0A3AE
:10391C00740FF0A37452F0A3740FF0A37452F0A3BD
:10392C00740FF0A37452F0A3740FF0A37452F0A3AD
:10393C00740FF09007F8E0F8A3E0F5838882A3A356
:10394C0078081223159086C1780812226390869508
:10395C0078081222DC9007F8E0240EF8A3E034007B
:10396C00F98882898378081223249007F8E02414BC
:10397C00F8A3E03400F9888289837413F09004A7CB
:10398C007402F00237A5C082C08390080AE02407B5
:10399C00F5D99007FAE0C4333354C0F5D978F879E7
:1039AC000788828983A3A3A3E0F5D988828983A39E
:1039BC00A882A983E864FE7003E9640770E39008A9
:1039CC000AE0601F78F87907FAE82413F582E934E5
:1039DC0000F583E0F5D988828983A3A882A9831A8C
:1039EC00EA70E690082AE02407F5D99007FAE0C4BB
:1039FC00333354C04404F5D978F879078882898325
:103A0C00A3A3A3E0F5D988828983A3A882A983E81C
:103A1C0064FE7003E9640770E390082AE0601F7885
:103A2C00F87907FAE82433F582E93400F583E0F5F8
:103A3C00D988828983A3A882A9831AEA70E675E1E2
:103A4C00959012957496F0A3740DF0A37452F0A394
:103A5C00740FF0A37452F0A3740FF0A37452F0A37C
:103A6C00740FF0A37490F0A3740DF0A37452F0A330
:103A7C00740FF0A374A8F0A3740DF09012A37452F9
:103A8C00F0A3740FF0A37452F0A3740FF0A374524C
:103A9C00F0A3740FF0A37452F0A3740FF0A374523C
:103AAC00F0A3740FF0A37452F0A3740FF09086D1AE
:103ABC001223339007F8E0240EF8A3E03400F988C1
:103ACC0082898312233F9007F8E02414F8A3E03492
:103ADC0000F9888289837412F09004A77401800223
:103AEC00F0A3F0023D56C082C08390080AE0240780
:103AFC00F5D99007FAE0C4333354C04402F5D978B1
:103B0C00F8790788828983A3A3A3E0F5D9888289F1
:103B1C0083A3A882A983E864FE7003E9640770E3B9
:103B2C0090080AE0601F78F87907FAE82413F58208
:103B3C00E93400F583E0F5D988828983A3A882A9AA
:103B4C00831AEA70E675E19590129574A2F0A3744D
:103B5C000DF0A374A2F0A3740DF0A374A2F0A374DF
:103B6C000DF0A374A2F0A3740DF0A374A2F0A374CF
:103B7C000DF0A374A2F0A3740DF0A374A8F0A374B9
:103B8C000DF09012A37452F0A3740FF0A37452F0C2
:103B9C00A3740FF0A37452F0A3740FF0A37452F03B
:103BAC00A3740FF0A37452F0A3740FF0A37452F02B
:103BBC00A3740FF09086D11223339007F8E0240EF3
:103BCC00F8A3E03400F98882898312233F9007F828
:103BDC00E02414F8A3E03400F9888289837414F08B
:103BEC009004A77404023AEEC082C08390080AE0E5
:103BFC002407F5D99007FAE0C4333354C04406F5D2
:103C0C00D978F8790788828983A3A3A3E0F5D988AA
:103C1C00828983A3A882A983E864FE7003E9640700
:103C2C0070E390080AE0601F78F87907FAE824132B
:103C3C00F582E93400F583E0F5D988828983A3A85D
:103C4C0082A9831AEA70E690082AE02407F5D99035
:103C5C0007FAE0C4333354C04404F5D978F8790733
:103C6C0088828983A3A3A3E0F5D988828983A3A83A
:103C7C0082A983E864FE7003E9640770E390082A64
:103C8C00E0601F78F87907FAE82433F582E934000C
:103C9C00F583E0F5D988828983A3A882A9831AEADF
:103CAC0070E675E195901295749CF0A3740DF0A3D9
:103CBC007452F0A3740FF0A37452F0A3740FF0A31A
:103CCC007452F0A3740FF0A37452F0A3740FF0A30A
:103CDC007452F0A3740FF0A374A8F0A3740DF090B9
:103CEC0012A37452F0A3740FF0A37452F0A3740FC8
:103CFC00F0A37452F0A3740FF0A37452F0A3740FDA
:103D0C00F0A37452F0A3740FF0A37452F0A3740FC9
:103D1C00F09086D11223339007F8E0240EF8A3E03C
:103D2C003400F98882898312233F9007F8E0241429
:103D3C00F8A3E03400F9888289837415F09004A705
:103D4C007403023AEEE0F91232CDD083D082020134
:103D5C0032C082C0839008617425F090085F7401B2
:103D6C00F0A3E4F07A01FB1210A290084DE02416A7
:103D7C00F8A3E03400F9888289837420F0A3740ED0
:103D8C00F090085EE06401701690085DE0701079A8
:103D9C00011211081210D2121102790012111480A2
:103DAC00A9C082C08374FA12245D900856E06401A5
:103DBC007008120DFC900856E4F075E1F190084D76
:103DCC00E02415F8A3E03400F9888289837401F0AB
:103DDC00900858E06401707690865DC082851882E8
:103DEC00851983AC82AD83758386D08274061223C9
:103DFC007075D90D90084FE0C4333354C04403F5AB
:103E0C00D9784D790888828983A3A3A3E0F5D98852
:103E1C00828983A3A882A983E864537003E96408A8
:103E2C0070E3851882851983A882A9838882898387
:103E3C00E0F5D9A3A882A98374061224A9E58268A7
:103E4C007003E5836970E575E1957901800279006D
:103E5C001210A89012957482F0A3740FF0A37488BA
:103E6C00F0A3740FF0A37482F0A3740FF0A3748208
:103E7C00F0A3740FF0A37452F0A3740FF0A3745258
:103E8C00F0A3740FF0A3748EF0A3740FF09012A330
:103E9C007452F0A3740FF0A37452F0A3740FF0A338
:103EAC007452F0A3740FF0A37452F0A3740FF0A328
:103EBC007452F0A3740FF0A37452F0A3740FF0902B
:103ECC00084FE0F97A507B08121078900861E0F9FD
:103EDC001232CD79011210AE90868112233312105A
:103EEC00C690869D122333121084790012112090F3
:103EFC00084DE02414F8A3E03400F9888289837417
:103F0C0016F09004A77405F00402356E74F71224B1
:103F1C00CD8908A808E875F006A4C8AAF02AF97497
:103F2C00D728FE740439FF900866E0F97A677B089D
:103F3C00121078900874E0701A79001210EA900749
:103F4C00E9E0700B79007AEA7B0712107E80097920
:103F5C000180F379011210EA75E1F175D92390080B
:103F6C0066E0C4333354C04405F5D97864790888C5
:103F7C00828983A3A3A3E0F5D988828983A3A8822D
:103F8C00A983E8646A7003E9640870E375D9007565
:103F9C00D90075D90075D90075D90075D900EEF81E
:103FAC00EFF9E82404FAE93400FBE82422F582E96D
:103FBC003400F583E0F5D988828983A3A882A9838C
:103FCC00EA687002EB6970E2EEF8EFF9E824031A84
:103FDC00E93400FBE82426F582E93400F583E0F5AA
:103FEC00D988828983A3A882A983EA687002EB69C5
:103FFC0070E2EE242BF582EF3400F583E0F5D9EE78
:10400C00F8EFF9E824021AE93400FBE8242CF582D5
:10401C00E93400F583E0F5D988828983A3A882A9C5
:10402C0083EA687002EB6970E2EEF8EFF9E8242E8F
:10403C00F582E93400F583E0F5D988828983A3A859
:10404C0082A983EA687002EB6970E2EEF8EFF9E896
:10405C002430F582E93400F583E0F5D98882898330
:10406C00A3A882A983EA687002EB6970E2EEF8EF0C
:10407C00F9E82432F582E93400F583E0F5D9888239
:10408C008983A3A882A983EA687002EB6970E2EEC7
:10409C00F8EFF9E824050A0A0AE93400FBE8245D84
:1040AC00F582E93400F583E0F5D988828983A3A8E9
:1040BC0082A983EA687002EB6970E2EE2437F5821C
:1040CC00EF3400F583E0541FF8EE242AF582EF3428
:1040DC0000F583E0C43354E048F5D975E1959012AE
:1040EC00957458F0A3740FF0A3745EF0A3740FF0E2
:1040FC00A37452F0A3740FF0A37452F0A3740FF0D6
:10410C00A37452F0A3740FF0A37452F0A3740FF0C5
:10411C00A37464F0A3740FF09012A37452F0A37400
:10412C000FF0A37452F0A3740FF0A37452F0A374A5
:10413C000FF0A37452F0A3740FF0A37452F0A37495
:10414C000FF0A37452F0A3740FF0900873E0F912FF
:10415C0032CD9086811223331210C690869D122385
:10416C003312108490600DE4F07901121120900448
:10417C00A7740602476D74EC1224CD900864E0F825
:10418C00A3E0F5838882A3A37810122315900875F9
:10419C00E0FAF875F006A4C8ACF02CF9740528F513
:1041AC0082740539F583E0FEA3E0FFEEC333FEEF26
:1041BC0033FF8E0CF50D750E00750F0085100885FC
:1041CC00110985120A85130B9086C5780812226393
:1041DC0078081226DC85100885110985120A8513CA
:1041EC000B7808790C1222507810790C122195E476
:1041FC00F50EF50F7808790C1222898A0C750D00D2
:10420C007403780C12244A7808790C122250908688
:10421C009578081222DCAA08AB09AC0AAD0B123057
:10422C00CF74041224738A088B09A808A909C3EE59
:10423C0098EF995006E82EF8E93FF9E890600EF0F7
:10424C00E9A3F0EEA3F0EFA3F090600D74C1F002BF
:10425C00372BC082C0839007F8E0F8A3E0F5838881
:10426C0082A3A3A3A3A3A3E4023AEC74F71224CD74
:10427C009004D5E0F875F006A4C8AAF02AF974D712
:10428C0028F8740439F9E82405FAE93400FB8A8229
:10429C008B83E0FCA3E0FD88828983A3A3A3A3A363
:1042AC00A3A3A3A3ECF0A3EDF088828983A3A3A31B
:1042BC00A3A3A3A3E024FFF8A3E034FFF98A828B25
:1042CC0083E8F0A3E902476DC082C08390084DE0FB
:1042DC00F8A3E0F5838882A3A3A3A3A3A3E4F0A38C
:1042EC00F0900861023D51C082C083900864E0F8F0
:1042FC00A3E0F5838882A3A3A3A3A3A3E4F0A3F074
:10430C00900873023D5102013274F61224CD906173
:10431C00D0E0F87480C398FCEA2483F582EB340077
:10432C00F583E06004780480027800E8240EF8EC51
:10433C00C39850030244967E0C90087DE4F0EA2466
:10434C0077F582EB3400F583E090087EF0EA247870
:10435C00FCEB3400FD787F79087F028C828D83E042
:10436C0088828983F08C828D83A3AC82AD83888212
:10437C008983A3A882A9831FEF70E0EA247AFCEB5F
:10438C003400FD7F028C828D83E088828983F08CDF
:10439C00828D83A3AC82AD8388828983A3A882A9F2
:1043AC00831FEF70E0EA247CFCEB3400FD7F028C71
:1043BC00828D83E088828983F08C828D83A3AC828A
:1043CC00AD8388828983A3A882A9831FEF70E0EA5A
:1043DC00247EFCEB3400FD7F028C828D83E088828E
:1043EC008983F08C828D83A3AC82AD838882898390
:1043FC00A3A882A9831FEF70E0EA2475FCEB3400BC
:10440C00FD8A828B83A3A3A3A3A3E0F508A3E0F505
:10441C00098C828D83E02508F0A3E03509F07F023A
:10442C008C828D83E088828983F08C828D83A3AC0F
:10443C0082AD8388828983A3A882A9831FEF70E051
:10444C00EA2483F582EB3400F583E0601975087D6E
:10445C0075090878081226E07C0C7903120F467453
:10446C00021224737E1074012EF5D975D90375824E
:10447C007D758308EEFFE0F5D9A31FEF70F875E1A9
:10448C009579041210CC790180027900024BF374F7
:10449C00F61224CD9061D0E0F87480C398FCEA2425
:1044AC0083F582EB3400F583E060047804800278B5
:1044BC0000E8240AF8ECC398500302458B750808F1
:1044CC0090087D7401F07CF07D07787E79087E057C
:1044DC008C828D83E088828983F08C828D83A3AC5F
:1044EC0082AD8388828983A3A882A9831EEE70E0A3
:1044FC00EA2481FCEB3400FD8A828B83A3A3A3A363
:10450C00A3E0FEA3E0FF8C828D83E02EF0A3E03FBE
:10451C00F07E028C828D83E088828983F08C828D80
:10452C0083A3AC82AD8388828983A3A882A9831ECE
:10453C00EE70E0EA2483F582EB3400F583E0601A38
:10454C0075087D75090878081226E07C0879031235
:10455C000F46740212247375080C74012508F5D9E2
:10456C0075D90375827D758308AE08E0F5D9A31E55
:10457C00EE70F875E19579041210CC79018002790E
:10458C0000024BF374F71224CDEAFEEBFF9061D0DE
:10459C00E0600302468775D91875D90375D903EE07
:1045AC00F8EFF9E82408FAE93400FBE8249CF582DA
:1045BC00E93400F583E0F5D988828983A3A882A920
:1045CC0083EA687002EB6970E2EEF8EFF9E8240216
:1045DC00FAE93400FBE824A4F582E93400F583E021
:1045EC00F5D988828983A3A882A983EA687002EB33
:1045FC006970E2EE2494F582EF3400F583E58224B1
:10460C0008F8E5833400F9E0F5D9A3E86582700376
:10461C00E9658370F2EE2488F582EF3400F583E5CA
:10462C00822404F8E5833400F9E0F5D9A3E8658227
:10463C007003E9658370F275E1957908EE2494FABC
:10464C00EF3400FB120EFE7904EE2488FAEF3400EE
:10465C00FB120EFE79041210CCEE2470F582EF34AE
:10466C0000F583E0F8A3E0F9EE2472F582EF340054
:10467C00F583E8F0A3E9F079018002790002476E36
:10468C0074F71224CDEAFEEBFF9061D0E0600302D8
:10469C00476975D90E75D90375D904EE248CF5824A
:1046AC00EF3400F583E5822408F8E5833400F9E063
:1046BC00F5D9A3E865827003E9658370F2EE248472
:1046CC00F582EF3400F583E5822404F8E5833400A9
:1046DC00F9E0F5D9A3E865827003E9658370F2759A
:1046EC00E1957908EE248CFAEF3400FB120EFE797A
:1046FC0004EE2484FAEF3400FB120EFE7C00EEF87C
:10470C00EFF9ECFAC3E49AFA95E0FBEE2AFAEF3BE8
:10471C00FBEA248BF582EB3400F583E0C0E0E8245F
:10472C00ABF582E93400F583D0E0F00C8882898304
:10473C00A3A882A983ECC3940840C7EE2470F58229
:10474C00EF3400F583E0F8A3E0F9EE2472F582EF84
:10475C003400F583E8F0A3E9F07901800279008058
:10476C0001F07F0102259FC082C08375D90275D9E3
:10477C000375D90575E195EA2470F582EB3400F5E3
:10478C0083E0F8A3E0F9EA2472F582EB3400F583B8
:10479C00E8F0A3E9F07901023D5674F61224CDEA53
:1047AC00FEEBFF90087D7406F075087D750908789E
:1047BC00081226E07C017903120F4674021224734E
:1047CC0075D90675D90375827D758308E0F5D9A373
:1047DC00E58264827004E583640870F075E195905D
:1047EC0004A7E06408701EEE2470F582EF3400F527
:1047FC0083E0F8A3E0F9EE2472F582EF3400F58340
:10480C00E8F0A3E9F07901024BF374F61224CDEA37
:10481C00FEEBFF9061D0E0705E90087D740AF0753D
:10482C00087D75090878081226E07C017903120FBF
:10483C0046740212247375D90675D90375827D7579
:10484C008308E0F5D9A3E58264827004E5836408EB
:10485C0070F075E195EE2470F582EF3400F583E08D
:10486C00F8A3E0F9EE2472F582EF3400F583E8F05A
:10487C00A3E9F0790180027900024BF374F612245B
:10488C00CDEAFEEBFF9061D0E07066780190087D78
:10489C00740BF09004A7E06407701975087D750916
:1048AC000878081226E07C017903120F4674021274
:1048BC0024737805740128F5D975D90375827D7533
:1048CC008308E8FAE0F5D9A31AEA70F875E195EED9
:1048DC002470F582EF3400F583E0F8A3E0F9EE24C0
:1048EC0072F582EF3400F583E8F0A3E9F0790180EA
:1048FC00027900024BF374F71224CDEAFEEBFF753C
:10490C00D90375D90375D90DEE24DEF582EF340089
:10491C00F583E0F5D975E19579041210CCEE24708D
:10492C00F582EF3400F583E0F8A3E0F9EE2472F59C
:10493C0082EF3400F583E8F0A3E9F0790102476EC9
:10494C0074F61224CDEAFEEBFF9061D0E0F874808F
:10495C00C398FAEE2483F582EF3400F583E060040B
:10496C00780480027800E8240BF8EAC3985003021C
:10497C004A227D0990087D7408F0EE24E5F8EF34A6
:10498C0000F97A7E7B087C0888828983E08A828B96
:10499C0083F088828983A3A882A9838A828B83A3CC
:1049AC00AA82AB831CEC70E0EE2483F582EF34001A
:1049BC00F583E0601D75087D75090878081226E0FE
:1049CC007C097903EEFAEFFB120F46740212247382
:1049DC007D0D74012DF5D975D90375827D7583080C
:1049EC008D08E0F5D9A31508E50870F675E1957901
:1049FC00041210CCEE2470F582EF3400F583E0F84D
:104A0C00A3E0F9EE2472F582EF3400F583E8F0A30D
:104A1C00E9F0790180027900024BF374F61224CD8F
:104A2C00EAFEEBFF9061D0E0F87480C398FAEE24B4
:104A3C0083F582EF3400F583E0600478048002781B
:104A4C0000E8240BF8EAC3985003024AEC7D099065
:104A5C00087DEDF0EE24E5F8EF3400F97A7E7B0862
:104A6C007C0888828983E08A828B83F088828983A0
:104A7C00A3A882A9838A828B83A3AA82AB831CEC12
:104A8C0070E0EE2483F582EF3400F583E0601D7551
:104A9C00087D75090878081226E07C097903EEFA7E
:104AAC00EFFB120F4674021224737D0D74012DF569
:104ABC00D975D90375827D7583088D08E0F5D9A366
:104ACC001508E50870F675E19579041210CCEE2402
:104ADC001DF582EF3400F583E4F0A3F07901800238
:104AEC007900024BF374F61224CDEAFEEBFF9061D1
:104AFC00D0E0F87480C398FAEE2483F582EF34008A
:104B0C00F583E06004780480027800E82408F8EA71
:104B1C00C3985003024BF17D0690087D740CF09005
:104B2C0004C4E090087EF07AC57B04787F79087C19
:104B3C00028A828B83E088828983F08A828B83A3AA
:104B4C00AA82AB8388828983A3A882A9831CEC7078
:104B5C00E07AC77B047C028A828B83E0888289831B
:104B6C00F08A828B83A3AA82AB8388828983A3A8D1
:104B7C0082A9831CEC70E0EE2483F582EF3400F5FF
:104B8C0083E0601D75087D75090878081226E07CA5
:104B9C00067903EEFAEFFB120F4674021224737DB2
:104BAC000A74012DF5D975D90375827D7583088D2D
:104BBC0008E0F5D9A31508E50870F675E1957904B8
:104BCC001210CCEE2470F582EF3400F583E0F8A3DC
:104BDC00E0F9EE2472F582EF3400F583E8F0A3E9F6
:104BEC00F07901800279007F0202259F74F612246D
:104BFC00CDEAFEEBFF9061D0E0F87480C398FAEE3A
:104C0C002483F582EF3400F583E06004780480029D
:104C1C007800E82404F8EAC3985003024CD27802D6
:104C2C0090087DE8F0EE24F7F582EF3400F583E090
:104C3C0090087EF0EE2483F582EF3400F583E0607B
:104C4C001B75087D75090878081226E07C0279032B
:104C5C00EEFA120F4674021224737806740128F5CA
:104C6C00D975D90375827D7583088808E0F5D9A3B9
:104C7C001508E50870F675E195EE2474F582EF34AD
:104C8C0000F583E4F0EE2480F582EF3400F583E444
:104C9C00F0EE241DF582EF3400F583E4F0A3F079F7
:104CAC00041210CCEE240DF582EF3400F583E0F8FD
:104CBC00A3E0F9EE2472F582EF3400F583E8F0A35B
:104CCC00E9F0790180027900024BF374F61224CDDD
:104CDC009061D0E0F87480C398FCEA2483F582EBF1
:104CEC003400F583E06004780480027800E8240442
:104CFC00F8ECC398405B790290087D7407F0EA24C5
:104D0C00F8F582EB3400F583E090087EF0EA24831A
:104D1C00F582EB3400F583E0601875087D750908A1
:104D2C0078081226E07C0209120F467402122473D2
:104D3C007906740129F5D975D90375827D758308B7
:104D4C00E9F8E0F5D9A318E870F875E195790180D8
:104D5C00027900024BF374F51224CDE9FCA2AFE406
:104D6C0033F50AC2AF7D0080010DEA246FF582EBAA
:104D7C003400F583E0F8EDC398501A8D08EA250845
:104D8C00F8EB3400F9E8246BF582E93400F583E0A4
:104D9C006C70D68024EA246FF8EB3400F9E0FEEA5C
:104DAC002EFAEB3400FBEA246BF582EB3400F5832E
:104DBC00ECF088828983E004F0E50AA2E092AF7FF0
:104DCC000302259F74F61224CDA2AFE433FDC2AFCB
:104DDC00EA246FF582EB3400F583E014F07C00607C
:104DEC00368C08EA2508F8EB3400F9E8246CF582D7
:104DFC00E93400F583E0C0E0E8246BF582E9340087
:104E0C00F583D0E0F00CEA246FF582EB3400F583E7
:104E1C00E0F8ECC39840CAEA246EF582EB3400F556
:104E2C008374FFF0EA246AF582EB3400F583E4F036
:104E3C00EDA2E092AF024BF3C082C083E5A8F8C2AA
:104E4C00AFEA246BF582EB3400F583E9F0EA246ACF
:104E5C00F582EB3400F583E4F0E8A2E792AF023D73
:104E6C005674F31224CDEAFEEBFFECFAEDFB8A82CA
:104E7C008B83A3A3A3A3E0541FF0EE2436F582EF9B
:104E8C003400F583E4F0F50AEEFCEFFD8A828B83A7
:104E9C00E0C0E0EC245DF582ED3400F583D0E0F069
:104EAC00750B00E50A33333354F8F50C8A828B8387
:104EBC00E0F508750900E50B780812242BE508A22B
:104ECC00E0502FEE2436F8EF3400F988828983E025
:104EDC00F508EE2508F508EF3400F509E508243847
:104EEC00F582E5093400F583E50CF088828983E0CE
:104EFC0004F0050B050CE50BC3940840AF050A8ABA
:104F0C00828B83A3AA82AB838C828D83A3AC82AD6C
:104F1C0083E50AC394055003024E987F0502259F32
:104F2C0074F71224CD9004D3E0640370077A007BED
:104F3C000002476E7B0078D3790488828983A3A30F
:104F4C00A3A3A3A3E06003025226EBF875F006A41A
:104F5C00C8AAF02AF974D728F8740439F988828918
:104F6C0083A3A37401F088828983A3A3A3E4F0EB49
:104F7C0088828983A3A3A3A3F0E82462F582E93491
:104F8C0000F5837401F0E82465F582E93400F583BB
:104F9C00E4F0A3F0E82468F582E93400F5837401A9
:104FAC00F088828983A3A3A3A3A3E4F0A3F088824F
:104FBC008983A3A3A3A3A3A3A3F0A3F0E8240FF5D1
:104FCC0082E93400F5837401F0E82435F582E93484
:104FDC0000F583E4F09086E9122333E82418F58277
:104FEC00E93400F58312233FE8241CF582E93400F0
:104FFC00F583E4F0E8241DF582E93400F583E4F050
:10500C00A3F0E82480F582E93400F583E4F0E82489
:10501C0074F582E93400F583E4F0E82469F582E95B
:10502C003400F5837480F0E8246AF582E93400F5E5
:10503C0083E4F0E8246FF582E93400F583E4F0E8CA
:10504C002467F582E93400F583E4F0E824EDF58279
:10505C00E93400F583E4F0E824EEF582E93400F558
:10506C0083E4F0E824EFF582E93400F583E4F0E81A
:10507C0024F0F582E93400F583E4F0E824F1F582BC
:10508C00E93400F583E4F0A3F0E824F3F582E93485
:10509C0000F583E4F0A3F0E824F6F582E93400F59A
:1050AC0083E4F0E82483F582E93400F583E4F0E846
:1050BC0024D3F582E93400F583E4F0E824D4F582B6
:1050CC00E93400F583E4F09086E9122333E824D523
:1050DC00F582E93400F58312233F9086E9122333DD
:1050EC00E824D9F582E93400F58312233FE824DF64
:1050FC00F582E93400F583E4F0E824E1F582E93443
:10510C0000F583E4F0E824DDF582E93400F583E46E
:10511C00F0E824E2F582E93400F583E4F0E824E3D6
:10512C00F582E93400F583E4F0E824F9F582E934FA
:10513C0000F583E4F0A3F0E824FBF582E93400F5F4
:10514C0083E4F0A3F0E824FDF582E93400F583E470
:10515C00F0A3F0E824FFF582E93400F583E4F0A332
:10516C00F0E8FAE9FBEA2404FCEB3400FDEA246BDA
:10517C00F582EB3400F58374FFF08A828B83A3AA4B
:10518C0082AB83EC6A7002ED6B70E2E8FAE9FB7CAF
:10519C00F07D078C828D83E0C0E0EA245DF582EB24
:1051AC003400F583D0E0F08C828D83A3AC82AD8388
:1051BC008A828B83A3AA82AB83EC64F57003ED64C3
:1051CC000770D0E8FAE9FB7CBA7D048C828D83A34E
:1051DC00E0C0E0EA24E5F582EB3400F583D0E0F0A2
:1051EC008C828D83A3AC82AD838A828B83A3AA82AB
:1051FC00AB83EC64C27003ED640470CF9004D3E015
:10520C0004F06401700D88828983A3A3A3A3E090AA
:10521C0004D5F0E8FAE9FB024F3D0BE82406F8E967
:10522C003401F9EBC394034003024F39024F46C0DB
:10523C0082C0838A828B83A3A3A3E0600F8A828BB4
:10524C0083A3A3A3E4F09004D4E014F09004D3E07F
:10525C0014F070069004D574FFF08A828B83A3A39C
:10526C00E4F09007F5E0700D9004D4E06401700553
:10527C007900121096023D56C082C08378D379040F
:10528C0088828983A3A3A3A3A3A3A3E4F088828920
:10529C0083A3A3A3A3A3A3F0E82406F8E93401F99C
:1052AC00E864E57003E9640770D69004D3E4F0A3D6
:1052BC00F0A374FFF075E1F1023D5674F31224CDA6
:1052CC00750800750900750C00750AD7750B04AECE
:1052DC000AAF0B8E828F83A3A3A3E0603FE5084542
:1052EC0009700AEEF8EFF988088909802F85088281
:1052FC00850983E0F8A3E0F5838882A3A31226F343
:10530C008E828F83E0F8A3E0F5838882A3A3122317
:10531C00331230727404122473E960C7050CEE2446
:10532C0006F50AEF3401F50BE50CC3940340A08598
:10533C000882850983A3A3A3A3E0F9024F2774F67F
:10534C001224CD78FF79FF7508007ED77F04EEFC20
:10535C00EFFD8C828D83A3A3A3E0606474FF68705F
:10536C000374FF697025EC2474F582ED3400F58329
:10537C00E064017011EC247AF582ED3400F583E0E1
:10538C00F8A3E0F9803AEC242E80EDEC2474F5823D
:10539C00ED3400F583E064017014EC247AF582EDB1
:1053AC003400F583C3E098A3E099501480C7EC2433
:1053BC002EF582ED3400F583C3E098A3E09940C646
:1053CC000508EE2406FEEF3401FFE508C3940350F4
:1053DC000302535AC3EA98EB994004E8FAE9FB023A
:1053EC004BF374F61224CDEAFEEBFF8E828F83A36F
:1053FC00A3A3E0600F8E828F83A3A3A3E4F0900499
:10540C00D4E014F09004D3E014F070069004D5743A
:10541C00FFF08E828F83A3A3E4F09007F5E0700D6C
:10542C009004D4E0640170057900121096EE2465A6
:10543C00F582EF3400F583E0F8A3E0F9E849602940
:10544C00EE2465F8EF3400F9880889098882F58321
:10545C00E0FCA3E0FD9004D5E0FA7B00120B628522
:10546C000882850983E4F0A3F0EEFAEFFB120FC477
:10547C00024BF374F71224CDEAFEEBFF8E828F837E
:10548C00A3A3A3A3E0FA7B00120BAAEEFAEFFB1284
:10549C000EBC120FA602476EC082C0837C007AD766
:1054AC007B04EAF8EBF988828983A3A3A3E0601E4E
:1054BC00E8246FF582E93400F583E06011E8246B91
:1054CC00F582E93400F583E07004790180110CEA6F
:1054DC002406FAEB3401FBECC3940340C5790002BB
:1054EC003D56C082C08378BA790488828983A3E44C
:1054FC00F088828983A3A882A983E864C27003E937
:10550C00640470E69004BB023AE8C082C08374FC69
:10551C0012245D9086E91223338518828519831233
:10552C00233F120F04E9851882851983F0120F04AA
:10553C0074011224A9E9F0120F0474021224A9E9CF
:10554C00F0851882851983122333740402356E7426
:10555C00F61224CDEAFEEBFFEC2403F8ED3400F94F
:10556C0088088909EC2407F8ED3400F9E8FCE9FD1A
:10557C008C828D83E0F8A3E0F9850882850983E0AD
:10558C00FAA3E0FB1223D2EE240DF582EF3400F5E2
:10559C0083E8F0A3E9F08C828D83E0F8A3E0F98531
:1055AC000882850983E0FAA3E0FB1223D28B09EA77
:1055BC0045096013EE240DF582EF3400F583E024E9
:1055CC0001F0A3E03400F0024BF374F61224CDEAA0
:1055DC00FEEBFFEE242EF582EF3400F583E0FCA306
:1055EC00E0FD780079FAECFAEDFB1223D2EE247090
:1055FC00F582EF3400F583E8F0A3E9F0780079FA4E
:10560C00ECFAEDFB1223D28B09EA45096013EE2468
:10561C0070F582EF3400F583E02401F0A3E0340050
:10562C00F0024BF374F01224CDEAFEEBFF7410126F
:10563C0024A978081223151210548A0C8B0D8C0E89
:10564C008D0F908739780C122263908695780C1206
:10565C0022DC780C1226DC8E828F83E0F8A3E0F536
:10566C00838882A3A312233312307274041224731E
:10567C00E9600302577D8E828F83E02402F8A3E059
:10568C003400F9E8FAE9FB8A828B837808122276D7
:10569C0090869578081223158A828B8378081222BB
:1056AC00EFEE240BF582EF3400F583C082C0838EBD
:1056BC00828F83A3A3A3A3A3E02401F8A3E0340067
:1056CC00F9D083D082E0687003A3E069700579019A
:1056DC0002577F8E828F83A3A3A3A3A3A3A3E0244B
:1056EC0001F0A3E03400F0EE2474F582EF3400F501
:1056FC0083E064017036EE2475F582EF3400F58397
:10570C00E0F8A3E0F98E828F83A3A3A3A3A3A3A3A2
:10571C00E0687003A3E0697013EE2475F582EF3432
:10572C0000F583E02401F0A3E03400F0EE2480F5D2
:10573C0082EF3400F583E064017036EE2481F5824B
:10574C00EF3400F583E0F8A3E0F98E828F83A3A3F6
:10575C00A3A3A3A3A3E0687003A3E0697013EE24D2
:10576C0081F582EF3400F583E02401F0A3E03400EE
:10577C00F079007F0802259F74F71224CD9004D590
:10578C00E0F875F006A4C8AAF02AF974D728FE74BC
:10579C000439FF8028EE2465F8EF3400F9888289FB
:1057AC0083E0FCA3E0FD88828983E4F0A3F08E8281
:1057BC008F83A3A3A3A3E0FA7B00120B62EE2465F4
:1057CC00F582EF3400F583E0F8A3E0F9E849604F87
:1057DC00EE2464F582EF3400F583E0F508780812C6
:1057EC0026E4EE2463F582EF3400F583E0F9EE2431
:1057FC0065F582EF3400F583E0FCA3E0FDEEFAEFF3
:10580C00FB120EF27401122473E96089EE2465F523
:10581C0082EF3400F583E0F8A3E0F9E84970137CDB
:10582C00007D008E828F83A3A3A3A3E0FA7B0012DA
:10583C000B6202476E74F21224CDEAFEEBFF890A6A
:10584C00740E1224A9E0FAEE2462F582EF3400F50E
:10585C0083E06401600302590D9061D0E0F874801C
:10586C00C398F50CEE2483F582EF3400F583E060E9
:10587C00047804800278008908E928F8E43400F9F7
:10588C00E824020808E93400F9E50C98E499A2D25E
:10589C0065D0334068EA7005750B028003750B0107
:1058AC00E0603975090078081226E07A7D7B0812D1
:1058BC000F28740212247375087D75090878081274
:1058CC0026E0AC0AA90BEEFAEFFB120F467402129B
:1058DC0024737404250AF50A7C7D7D087401250A5D
:1058EC00F5D9850BD9E50A600D8C828D83F8E0F52E
:1058FC00D9A318E870F875E19579008006790780CE
:10590C000279FF7F0602259FC082C083E960208C4C
:10591C00828D83E08A828B83F08C828D83A3AC8210
:10592C00AD838A828B83A3AA82AB8319E970E0ECE6
:10593C00FAEDFB023D5674F41224CDE99004A6F066
:10594C00121066907800E0C4540F5407640370047E
:10595C00793F8002797F7508067509007808122650
:10596C00E07C947D047AEA7B071214AA7402122458
:10597C0073900494E0F47049A3E0F47044A3E0F451
:10598C00703FA3E0F4703AA3E0F47035A3E0F47038
:10599C003090780EE0900494F090780FE09004959D
:1059AC00F0907810E0900496F0907811E0900497C5
:1059BC00F0907812E0900498F0907813E0900499AD
:1059CC00F090049A74FFF0A3F0A3F0A3F0A3F0A35B
:1059DC00F0900494E09004A0F0900495E09004A161
:1059EC00F0900496E09004A2F0900497E09004A349
:1059FC00F0900498E09004A4F0900499E09004A531
:105A0C00F09004C47406F0A3740DF0A3E4F0A37436
:105A1C0032F0A37401F09007FB74FFF0A3F0A3F035
:105A2C00A3F0A3F0A3F09007FAE4F0900801F0A320
:105A3C0074A0F0A3E4F0A37403F0A37407F0A3E440
:105A4C00F0A37428F0A3E4F0A304F0A3E4F090080E
:105A5C002AF090085074FFF0A3F0A3F0A3F0A3F089
:105A6C00A3F090084FE4F090085604F0A3E4F0A3E0
:105A7C00F0A37480F0A37402F0A37480F0A37402FA
:105A8C00F0A3E4F0A304F0A3F0A3E4F0A37425F0D6
:105A9C00A3E4F0A3F090086774FFF0A3F0A3F0A3C5
:105AAC00F0A3F0A3F0900866E4F090086D04F0A366
:105ABC00E4F0A37480F0A37402F0A37480F0A374D8
:105ACC0002F0A37425F0A3E4F0A3F0A37405F09006
:105ADC00087774FFF0A3E4F0900879F090087B0449
:105AEC00F0120DCC120CDC12101279017A7C7B08AE
:105AFC00120F0A90087CE075F01484E5F004F0793C
:105B0C000C7A9D7B08120F0A120F227A009004A6C1
:105B1C00E0F9121678907803E06442705E90087C8D
:105B2C00E014F07056C2AF125B3600782AD0E0F663
